{
  "contractName": "CrowdFundingWithDeadline",
  "abi": [
    {
      "constant": true,
      "inputs": [],
      "name": "name",
      "outputs": [
        {
          "name": "",
          "type": "string"
        }
      ],
      "payable": false,
      "stateMutability": "view",
      "type": "function"
    },
    {
      "constant": true,
      "inputs": [],
      "name": "beneficiary",
      "outputs": [
        {
          "name": "",
          "type": "address"
        }
      ],
      "payable": false,
      "stateMutability": "view",
      "type": "function"
    },
    {
      "constant": true,
      "inputs": [
        {
          "name": "",
          "type": "address"
        }
      ],
      "name": "amounts",
      "outputs": [
        {
          "name": "",
          "type": "uint256"
        }
      ],
      "payable": false,
      "stateMutability": "view",
      "type": "function"
    },
    {
      "constant": true,
      "inputs": [],
      "name": "collected",
      "outputs": [
        {
          "name": "",
          "type": "bool"
        }
      ],
      "payable": false,
      "stateMutability": "view",
      "type": "function"
    },
    {
      "constant": true,
      "inputs": [],
      "name": "targetAmount",
      "outputs": [
        {
          "name": "",
          "type": "uint256"
        }
      ],
      "payable": false,
      "stateMutability": "view",
      "type": "function"
    },
    {
      "constant": true,
      "inputs": [],
      "name": "state",
      "outputs": [
        {
          "name": "",
          "type": "uint8"
        }
      ],
      "payable": false,
      "stateMutability": "view",
      "type": "function"
    },
    {
      "constant": true,
      "inputs": [],
      "name": "totalCollected",
      "outputs": [
        {
          "name": "",
          "type": "uint256"
        }
      ],
      "payable": false,
      "stateMutability": "view",
      "type": "function"
    },
    {
      "inputs": [
        {
          "name": "contractName",
          "type": "string"
        },
        {
          "name": "targetAmountEth",
          "type": "uint256"
        },
        {
          "name": "durtionInMin",
          "type": "uint256"
        },
        {
          "name": "beneficiaryAddress",
          "type": "address"
        }
      ],
      "payable": false,
      "stateMutability": "nonpayable",
      "type": "constructor"
    },
    {
      "constant": false,
      "inputs": [],
      "name": "contribute",
      "outputs": [],
      "payable": true,
      "stateMutability": "payable",
      "type": "function"
    }
  ],
  "bytecode": "0x608060405234801561001057600080fd5b506040516106c23803806106c283398101806040528101908080518201929190602001805190602001909291908051906020019092919080519060200190929190505050836000908051906020019061006a929190610114565b50670de0b6b3a76400008302600181905550603c820261009761010c640100000000026401000000009004565b0160028190555080600360006101000a81548173ffffffffffffffffffffffffffffffffffffffff021916908373ffffffffffffffffffffffffffffffffffffffff1602179055506000600360146101000a81548160ff021916908360038111156100fe57fe5b0217905550505050506101b9565b600042905090565b828054600181600116156101000203166002900490600052602060002090601f016020900481019282601f1061015557805160ff1916838001178555610183565b82800160010185558215610183579182015b82811115610182578251825591602001919060010190610167565b5b5090506101909190610194565b5090565b6101b691905b808211156101b257600081600090555060010161019a565b5090565b90565b6104fa806101c86000396000f30060806040526004361061008e576000357c0100000000000000000000000000000000000000000000000000000000900463ffffffff16806306fdde031461009357806338af3eed1461012357806355a3b2c11461017a57806384bcefd4146101d1578063953b8fb814610200578063c19d93fb1461022b578063d7bb99ba14610264578063e29eb8361461026e575b600080fd5b34801561009f57600080fd5b506100a8610299565b6040518080602001828103825283818151815260200191508051906020019080838360005b838110156100e85780820151818401526020810190506100cd565b50505050905090810190601f1680156101155780820380516001836020036101000a031916815260200191505b509250505060405180910390f35b34801561012f57600080fd5b50610138610337565b604051808273ffffffffffffffffffffffffffffffffffffffff1673ffffffffffffffffffffffffffffffffffffffff16815260200191505060405180910390f35b34801561018657600080fd5b506101bb600480360381019080803573ffffffffffffffffffffffffffffffffffffffff16906020019092919050505061035d565b6040518082815260200191505060405180910390f35b3480156101dd57600080fd5b506101e6610375565b604051808215151515815260200191505060405180910390f35b34801561020c57600080fd5b50610215610388565b6040518082815260200191505060405180910390f35b34801561023757600080fd5b5061024061038e565b6040518082600381111561025057fe5b60ff16815260200191505060405180910390f35b61026c6103a1565b005b34801561027a57600080fd5b506102836104c8565b6040518082815260200191505060405180910390f35b60008054600181600116156101000203166002900480601f01602080910402602001604051908101604052809291908181526020018280546001816001161561010002031660029004801561032f5780601f106103045761010080835404028352916020019161032f565b820191906000526020600020905b81548152906001019060200180831161031257829003601f168201915b505050505081565b600360009054906101000a900473ffffffffffffffffffffffffffffffffffffffff1681565b60046020528060005260406000206000915090505481565b600560009054906101000a900460ff1681565b60015481565b600360149054906101000a900460ff1681565b60008060038111156103af57fe5b600360149054906101000a900460ff1660038111156103ca57fe5b14151561043f576040517f08c379a000000000000000000000000000000000000000000000000000000000815260040180806020018281038252600d8152602001807f496e76616c69642053746174650000000000000000000000000000000000000081525060200191505060405180910390fd5b34600460003373ffffffffffffffffffffffffffffffffffffffff1673ffffffffffffffffffffffffffffffffffffffff16815260200190815260200160002060008282540192505081905550346006600082825401925050819055506001546006541015156104c5576001600560006101000a81548160ff0219169083151502179055505b50565b600654815600a165627a7a723058209f2f09cad5a35f2a82fa0dd167058d6347fb2e71dfa85c77eb5b13b7180234680029",
  "source": "pragma solidity ^0.4.24;\n contract CrowdFundingWithDeadline{\n     enum State { Ongoing, Failed,Succeed,PaidOut }\n     string public  name;\n     uint public targetAmount;\n     uint fundingDeadline;\n     address public beneficiary;\n     State public state;\n     mapping(address => uint) public amounts;\n     bool public collected;\n     uint public totalCollected;\n\n     modifier inState(State expectedState){\n         require(state == expectedState, \"Invalid State\");\n         _;\n     }\n\n     constructor (\n         string contractName,\n         uint targetAmountEth,\n         uint durtionInMin,\n         address beneficiaryAddress\n     )\n     public \n     {\n        name = contractName; \n        targetAmount = targetAmountEth * 1 ether;\n        fundingDeadline = currentTime() + durtionInMin * 1 minutes;\n        beneficiary = beneficiaryAddress;\n        state = State.Ongoing;\n     }\n      \n      function contribute() public payable inState(State.Ongoing) {\n          amounts[msg.sender] += msg.value;\n          totalCollected += msg.value;\n\n          if (totalCollected >= targetAmount) {\n              collected = true;\n          }\n      }\n\n     function currentTime() internal view returns(uint){\n         return now;\n     }\n }",
  "sourcePath": "/Users/nkemakolamnnadi/Projects/Automation/SRE/practice_ethereum/crowdfunding/contracts/CrowdFundingWithDeadline.sol",
  "compiler": {
    "name": "solc",
    "version": "0.4.24+commit.e67f0147.Emscripten.clang"
  },
  "schemaVersion": "3.4.7",
  "updatedAt": "2022-06-30T14:32:58.192Z",
  "devdoc": {
    "methods": {}
  },
  "userdoc": {
    "methods": {}
  }
}